{
  "_format": "hh-sol-artifact-1",
  "contractName": "MedicalRecords",
  "sourceName": "contracts/MedicalRecords.sol",
  "abi": [
    {
      "inputs": [
        {
          "internalType": "string",
          "name": "_patientAadhar",
          "type": "string"
        },
        {
          "internalType": "string",
          "name": "_treatment",
          "type": "string"
        },
        {
          "internalType": "string",
          "name": "_doctorName",
          "type": "string"
        }
      ],
      "name": "addRecord",
      "outputs": [],
      "stateMutability": "nonpayable",
      "type": "function"
    },
    {
      "inputs": [
        {
          "internalType": "string",
          "name": "_patientAadhar",
          "type": "string"
        },
        {
          "internalType": "uint256",
          "name": "index",
          "type": "uint256"
        }
      ],
      "name": "getRecordByIndex",
      "outputs": [
        {
          "internalType": "string",
          "name": "",
          "type": "string"
        },
        {
          "internalType": "string",
          "name": "",
          "type": "string"
        },
        {
          "internalType": "uint256",
          "name": "",
          "type": "uint256"
        }
      ],
      "stateMutability": "view",
      "type": "function"
    },
    {
      "inputs": [
        {
          "internalType": "string",
          "name": "_patientAadhar",
          "type": "string"
        }
      ],
      "name": "getRecordCount",
      "outputs": [
        {
          "internalType": "uint256",
          "name": "",
          "type": "uint256"
        }
      ],
      "stateMutability": "view",
      "type": "function"
    }
  ],
  "bytecode": "0x6080604052348015600f57600080fd5b50610b888061001f6000396000f3fe608060405234801561001057600080fd5b50600436106100415760003560e01c80633f723c62146100465780636319d03e14610062578063c3cef20a14610094575b600080fd5b610060600480360381019061005b9190610516565b6100c4565b005b61007c600480360381019061007791906105f3565b61016b565b60405161008b939291906106dd565b60405180910390f35b6100ae60048036038101906100a99190610722565b610360565b6040516100bb919061076b565b60405180910390f35b60006100cf8461038c565b90506000604051806060016040528085815260200184815260200142815250905060008083815260200190815260200160002081908060018154018082558091505060019003906000526020600020906003020160009091909190915060008201518160000190816101419190610992565b5060208201518160010190816101579190610992565b506040820151816002015550505050505050565b60608060008061017a8661038c565b90506000808281526020019081526020016000208054905085106101d3576040517f08c379a00000000000000000000000000000000000000000000000000000000081526004016101ca90610ab0565b60405180910390fd5b600080600083815260200190815260200160002086815481106101f9576101f8610ad0565b5b9060005260206000209060030201604051806060016040529081600082018054610222906107b5565b80601f016020809104026020016040519081016040528092919081815260200182805461024e906107b5565b801561029b5780601f106102705761010080835404028352916020019161029b565b820191906000526020600020905b81548152906001019060200180831161027e57829003601f168201915b505050505081526020016001820180546102b4906107b5565b80601f01602080910402602001604051908101604052809291908181526020018280546102e0906107b5565b801561032d5780601f106103025761010080835404028352916020019161032d565b820191906000526020600020905b81548152906001019060200180831161031057829003601f168201915b50505050508152602001600282015481525050905080600001518160200151826040015194509450945050509250925092565b60008061036c8361038c565b905060008082815260200190815260200160002080549050915050919050565b60008160405160200161039f9190610b3b565b604051602081830303815290604052805190602001209050919050565b6000604051905090565b600080fd5b600080fd5b600080fd5b600080fd5b6000601f19601f8301169050919050565b7f4e487b7100000000000000000000000000000000000000000000000000000000600052604160045260246000fd5b610423826103da565b810181811067ffffffffffffffff82111715610442576104416103eb565b5b80604052505050565b60006104556103bc565b9050610461828261041a565b919050565b600067ffffffffffffffff821115610481576104806103eb565b5b61048a826103da565b9050602081019050919050565b82818337600083830152505050565b60006104b96104b484610466565b61044b565b9050828152602081018484840111156104d5576104d46103d5565b5b6104e0848285610497565b509392505050565b600082601f8301126104fd576104fc6103d0565b5b813561050d8482602086016104a6565b91505092915050565b60008060006060848603121561052f5761052e6103c6565b5b600084013567ffffffffffffffff81111561054d5761054c6103cb565b5b610559868287016104e8565b935050602084013567ffffffffffffffff81111561057a576105796103cb565b5b610586868287016104e8565b925050604084013567ffffffffffffffff8111156105a7576105a66103cb565b5b6105b3868287016104e8565b9150509250925092565b6000819050919050565b6105d0816105bd565b81146105db57600080fd5b50565b6000813590506105ed816105c7565b92915050565b6000806040838503121561060a576106096103c6565b5b600083013567ffffffffffffffff811115610628576106276103cb565b5b610634858286016104e8565b9250506020610645858286016105de565b9150509250929050565b600081519050919050565b600082825260208201905092915050565b60005b8381101561068957808201518184015260208101905061066e565b60008484015250505050565b60006106a08261064f565b6106aa818561065a565b93506106ba81856020860161066b565b6106c3816103da565b840191505092915050565b6106d7816105bd565b82525050565b600060608201905081810360008301526106f78186610695565b9050818103602083015261070b8185610695565b905061071a60408301846106ce565b949350505050565b600060208284031215610738576107376103c6565b5b600082013567ffffffffffffffff811115610756576107556103cb565b5b610762848285016104e8565b91505092915050565b600060208201905061078060008301846106ce565b92915050565b7f4e487b7100000000000000000000000000000000000000000000000000000000600052602260045260246000fd5b600060028204905060018216806107cd57607f821691505b6020821081036107e0576107df610786565b5b50919050565b60008190508160005260206000209050919050565b60006020601f8301049050919050565b600082821b905092915050565b6000600883026108487fffffffffffffffffffffffffffffffffffffffffffffffffffffffffffffffff8261080b565b610852868361080b565b95508019841693508086168417925050509392505050565b6000819050919050565b600061088f61088a610885846105bd565b61086a565b6105bd565b9050919050565b6000819050919050565b6108a983610874565b6108bd6108b582610896565b848454610818565b825550505050565b600090565b6108d26108c5565b6108dd8184846108a0565b505050565b5b81811015610901576108f66000826108ca565b6001810190506108e3565b5050565b601f82111561094657610917816107e6565b610920846107fb565b8101602085101561092f578190505b61094361093b856107fb565b8301826108e2565b50505b505050565b600082821c905092915050565b60006109696000198460080261094b565b1980831691505092915050565b60006109828383610958565b9150826002028217905092915050565b61099b8261064f565b67ffffffffffffffff8111156109b4576109b36103eb565b5b6109be82546107b5565b6109c9828285610905565b600060209050601f8311600181146109fc57600084156109ea578287015190505b6109f48582610976565b865550610a5c565b601f198416610a0a866107e6565b60005b82811015610a3257848901518255600182019150602085019450602081019050610a0d565b86831015610a4f5784890151610a4b601f891682610958565b8355505b6001600288020188555050505b505050505050565b7f496e646578206f7574206f6620626f756e647300000000000000000000000000600082015250565b6000610a9a60138361065a565b9150610aa582610a64565b602082019050919050565b60006020820190508181036000830152610ac981610a8d565b9050919050565b7f4e487b7100000000000000000000000000000000000000000000000000000000600052603260045260246000fd5b600081905092915050565b6000610b158261064f565b610b1f8185610aff565b9350610b2f81856020860161066b565b80840191505092915050565b6000610b478284610b0a565b91508190509291505056fea2646970667358221220ce9659c7601ec26dabdbc44c4077e2a61e7598c80f2024f5b9ff91e0502463ef64736f6c634300081c0033",
  "linkReferences": {},
  "deployedLinkReferences": {}
}