{"contracts/MedicalRecords.sol":{"MedicalRecords":{"abi":[{"inputs":[{"internalType":"string","name":"_patientAadhar","type":"string"},{"internalType":"string","name":"_treatment","type":"string"},{"internalType":"string","name":"_doctorName","type":"string"}],"name":"addRecord","outputs":[],"stateMutability":"nonpayable","type":"function"},{"inputs":[{"internalType":"string","name":"_patientAadhar","type":"string"},{"internalType":"uint256","name":"index","type":"uint256"}],"name":"getRecordByIndex","outputs":[{"internalType":"string","name":"","type":"string"},{"internalType":"string","name":"","type":"string"},{"internalType":"uint256","name":"","type":"uint256"}],"stateMutability":"view","type":"function"},{"inputs":[{"internalType":"string","name":"_patientAadhar","type":"string"}],"name":"getRecordCount","outputs":[{"internalType":"uint256","name":"","type":"uint256"}],"stateMutability":"view","type":"function"}],"evm":{"bytecode":{"linkReferences":{},"object":"6080604052348015600f57600080fd5b50610b888061001f6000396000f3fe608060405234801561001057600080fd5b50600436106100415760003560e01c80633f723c62146100465780636319d03e14610062578063c3cef20a14610094575b600080fd5b610060600480360381019061005b9190610516565b6100c4565b005b61007c600480360381019061007791906105f3565b61016b565b60405161008b939291906106dd565b60405180910390f35b6100ae60048036038101906100a99190610722565b610360565b6040516100bb919061076b565b60405180910390f35b60006100cf8461038c565b90506000604051806060016040528085815260200184815260200142815250905060008083815260200190815260200160002081908060018154018082558091505060019003906000526020600020906003020160009091909190915060008201518160000190816101419190610992565b5060208201518160010190816101579190610992565b506040820151816002015550505050505050565b60608060008061017a8661038c565b90506000808281526020019081526020016000208054905085106101d3576040517f08c379a00000000000000000000000000000000000000000000000000000000081526004016101ca90610ab0565b60405180910390fd5b600080600083815260200190815260200160002086815481106101f9576101f8610ad0565b5b9060005260206000209060030201604051806060016040529081600082018054610222906107b5565b80601f016020809104026020016040519081016040528092919081815260200182805461024e906107b5565b801561029b5780601f106102705761010080835404028352916020019161029b565b820191906000526020600020905b81548152906001019060200180831161027e57829003601f168201915b505050505081526020016001820180546102b4906107b5565b80601f01602080910402602001604051908101604052809291908181526020018280546102e0906107b5565b801561032d5780601f106103025761010080835404028352916020019161032d565b820191906000526020600020905b81548152906001019060200180831161031057829003601f168201915b50505050508152602001600282015481525050905080600001518160200151826040015194509450945050509250925092565b60008061036c8361038c565b905060008082815260200190815260200160002080549050915050919050565b60008160405160200161039f9190610b3b565b604051602081830303815290604052805190602001209050919050565b6000604051905090565b600080fd5b600080fd5b600080fd5b600080fd5b6000601f19601f8301169050919050565b7f4e487b7100000000000000000000000000000000000000000000000000000000600052604160045260246000fd5b610423826103da565b810181811067ffffffffffffffff82111715610442576104416103eb565b5b80604052505050565b60006104556103bc565b9050610461828261041a565b919050565b600067ffffffffffffffff821115610481576104806103eb565b5b61048a826103da565b9050602081019050919050565b82818337600083830152505050565b60006104b96104b484610466565b61044b565b9050828152602081018484840111156104d5576104d46103d5565b5b6104e0848285610497565b509392505050565b600082601f8301126104fd576104fc6103d0565b5b813561050d8482602086016104a6565b91505092915050565b60008060006060848603121561052f5761052e6103c6565b5b600084013567ffffffffffffffff81111561054d5761054c6103cb565b5b610559868287016104e8565b935050602084013567ffffffffffffffff81111561057a576105796103cb565b5b610586868287016104e8565b925050604084013567ffffffffffffffff8111156105a7576105a66103cb565b5b6105b3868287016104e8565b9150509250925092565b6000819050919050565b6105d0816105bd565b81146105db57600080fd5b50565b6000813590506105ed816105c7565b92915050565b6000806040838503121561060a576106096103c6565b5b600083013567ffffffffffffffff811115610628576106276103cb565b5b610634858286016104e8565b9250506020610645858286016105de565b9150509250929050565b600081519050919050565b600082825260208201905092915050565b60005b8381101561068957808201518184015260208101905061066e565b60008484015250505050565b60006106a08261064f565b6106aa818561065a565b93506106ba81856020860161066b565b6106c3816103da565b840191505092915050565b6106d7816105bd565b82525050565b600060608201905081810360008301526106f78186610695565b9050818103602083015261070b8185610695565b905061071a60408301846106ce565b949350505050565b600060208284031215610738576107376103c6565b5b600082013567ffffffffffffffff811115610756576107556103cb565b5b610762848285016104e8565b91505092915050565b600060208201905061078060008301846106ce565b92915050565b7f4e487b7100000000000000000000000000000000000000000000000000000000600052602260045260246000fd5b600060028204905060018216806107cd57607f821691505b6020821081036107e0576107df610786565b5b50919050565b60008190508160005260206000209050919050565b60006020601f8301049050919050565b600082821b905092915050565b6000600883026108487fffffffffffffffffffffffffffffffffffffffffffffffffffffffffffffffff8261080b565b610852868361080b565b95508019841693508086168417925050509392505050565b6000819050919050565b600061088f61088a610885846105bd565b61086a565b6105bd565b9050919050565b6000819050919050565b6108a983610874565b6108bd6108b582610896565b848454610818565b825550505050565b600090565b6108d26108c5565b6108dd8184846108a0565b505050565b5b81811015610901576108f66000826108ca565b6001810190506108e3565b5050565b601f82111561094657610917816107e6565b610920846107fb565b8101602085101561092f578190505b61094361093b856107fb565b8301826108e2565b50505b505050565b600082821c905092915050565b60006109696000198460080261094b565b1980831691505092915050565b60006109828383610958565b9150826002028217905092915050565b61099b8261064f565b67ffffffffffffffff8111156109b4576109b36103eb565b5b6109be82546107b5565b6109c9828285610905565b600060209050601f8311600181146109fc57600084156109ea578287015190505b6109f48582610976565b865550610a5c565b601f198416610a0a866107e6565b60005b82811015610a3257848901518255600182019150602085019450602081019050610a0d565b86831015610a4f5784890151610a4b601f891682610958565b8355505b6001600288020188555050505b505050505050565b7f496e646578206f7574206f6620626f756e647300000000000000000000000000600082015250565b6000610a9a60138361065a565b9150610aa582610a64565b602082019050919050565b60006020820190508181036000830152610ac981610a8d565b9050919050565b7f4e487b7100000000000000000000000000000000000000000000000000000000600052603260045260246000fd5b600081905092915050565b6000610b158261064f565b610b1f8185610aff565b9350610b2f81856020860161066b565b80840191505092915050565b6000610b478284610b0a565b91508190509291505056fea2646970667358221220ce9659c7601ec26dabdbc44c4077e2a61e7598c80f2024f5b9ff91e0502463ef64736f6c634300081c0033","opcodes":"PUSH1 0x80 PUSH1 0x40 MSTORE CALLVALUE DUP1 ISZERO PUSH1 0xF JUMPI PUSH1 0x0 DUP1 REVERT JUMPDEST POP PUSH2 0xB88 DUP1 PUSH2 0x1F PUSH1 0x0 CODECOPY PUSH1 0x0 RETURN INVALID PUSH1 0x80 PUSH1 0x40 MSTORE CALLVALUE DUP1 ISZERO PUSH2 0x10 JUMPI PUSH1 0x0 DUP1 REVERT JUMPDEST POP PUSH1 0x4 CALLDATASIZE LT PUSH2 0x41 JUMPI PUSH1 0x0 CALLDATALOAD PUSH1 0xE0 SHR DUP1 PUSH4 0x3F723C62 EQ PUSH2 0x46 JUMPI DUP1 PUSH4 0x6319D03E EQ PUSH2 0x62 JUMPI DUP1 PUSH4 0xC3CEF20A EQ PUSH2 0x94 JUMPI JUMPDEST PUSH1 0x0 DUP1 REVERT JUMPDEST PUSH2 0x60 PUSH1 0x4 DUP1 CALLDATASIZE SUB DUP2 ADD SWAP1 PUSH2 0x5B SWAP2 SWAP1 PUSH2 0x516 JUMP JUMPDEST PUSH2 0xC4 JUMP JUMPDEST STOP JUMPDEST PUSH2 0x7C PUSH1 0x4 DUP1 CALLDATASIZE SUB DUP2 ADD SWAP1 PUSH2 0x77 SWAP2 SWAP1 PUSH2 0x5F3 JUMP JUMPDEST PUSH2 0x16B JUMP JUMPDEST PUSH1 0x40 MLOAD PUSH2 0x8B SWAP4 SWAP3 SWAP2 SWAP1 PUSH2 0x6DD JUMP JUMPDEST PUSH1 0x40 MLOAD DUP1 SWAP2 SUB SWAP1 RETURN JUMPDEST PUSH2 0xAE PUSH1 0x4 DUP1 CALLDATASIZE SUB DUP2 ADD SWAP1 PUSH2 0xA9 SWAP2 SWAP1 PUSH2 0x722 JUMP JUMPDEST PUSH2 0x360 JUMP JUMPDEST PUSH1 0x40 MLOAD PUSH2 0xBB SWAP2 SWAP1 PUSH2 0x76B JUMP JUMPDEST PUSH1 0x40 MLOAD DUP1 SWAP2 SUB SWAP1 RETURN JUMPDEST PUSH1 0x0 PUSH2 0xCF DUP5 PUSH2 0x38C JUMP JUMPDEST SWAP1 POP PUSH1 0x0 PUSH1 0x40 MLOAD DUP1 PUSH1 0x60 ADD PUSH1 0x40 MSTORE DUP1 DUP6 DUP2 MSTORE PUSH1 0x20 ADD DUP5 DUP2 MSTORE PUSH1 0x20 ADD TIMESTAMP DUP2 MSTORE POP SWAP1 POP PUSH1 0x0 DUP1 DUP4 DUP2 MSTORE PUSH1 0x20 ADD SWAP1 DUP2 MSTORE PUSH1 0x20 ADD PUSH1 0x0 KECCAK256 DUP2 SWAP1 DUP1 PUSH1 0x1 DUP2 SLOAD ADD DUP1 DUP3 SSTORE DUP1 SWAP2 POP POP PUSH1 0x1 SWAP1 SUB SWAP1 PUSH1 0x0 MSTORE PUSH1 0x20 PUSH1 0x0 KECCAK256 SWAP1 PUSH1 0x3 MUL ADD PUSH1 0x0 SWAP1 SWAP2 SWAP1 SWAP2 SWAP1 SWAP2 POP PUSH1 0x0 DUP3 ADD MLOAD DUP2 PUSH1 0x0 ADD SWAP1 DUP2 PUSH2 0x141 SWAP2 SWAP1 PUSH2 0x992 JUMP JUMPDEST POP PUSH1 0x20 DUP3 ADD MLOAD DUP2 PUSH1 0x1 ADD SWAP1 DUP2 PUSH2 0x157 SWAP2 SWAP1 PUSH2 0x992 JUMP JUMPDEST POP PUSH1 0x40 DUP3 ADD MLOAD DUP2 PUSH1 0x2 ADD SSTORE POP POP POP POP POP POP POP JUMP JUMPDEST PUSH1 0x60 DUP1 PUSH1 0x0 DUP1 PUSH2 0x17A DUP7 PUSH2 0x38C JUMP JUMPDEST SWAP1 POP PUSH1 0x0 DUP1 DUP3 DUP2 MSTORE PUSH1 0x20 ADD SWAP1 DUP2 MSTORE PUSH1 0x20 ADD PUSH1 0x0 KECCAK256 DUP1 SLOAD SWAP1 POP DUP6 LT PUSH2 0x1D3 JUMPI PUSH1 0x40 MLOAD PUSH32 0x8C379A000000000000000000000000000000000000000000000000000000000 DUP2 MSTORE PUSH1 0x4 ADD PUSH2 0x1CA SWAP1 PUSH2 0xAB0 JUMP JUMPDEST PUSH1 0x40 MLOAD DUP1 SWAP2 SUB SWAP1 REVERT JUMPDEST PUSH1 0x0 DUP1 PUSH1 0x0 DUP4 DUP2 MSTORE PUSH1 0x20 ADD SWAP1 DUP2 MSTORE PUSH1 0x20 ADD PUSH1 0x0 KECCAK256 DUP7 DUP2 SLOAD DUP2 LT PUSH2 0x1F9 JUMPI PUSH2 0x1F8 PUSH2 0xAD0 JUMP JUMPDEST JUMPDEST SWAP1 PUSH1 0x0 MSTORE PUSH1 0x20 PUSH1 0x0 KECCAK256 SWAP1 PUSH1 0x3 MUL ADD PUSH1 0x40 MLOAD DUP1 PUSH1 0x60 ADD PUSH1 0x40 MSTORE SWAP1 DUP2 PUSH1 0x0 DUP3 ADD DUP1 SLOAD PUSH2 0x222 SWAP1 PUSH2 0x7B5 JUMP JUMPDEST DUP1 PUSH1 0x1F ADD PUSH1 0x20 DUP1 SWAP2 DIV MUL PUSH1 0x20 ADD PUSH1 0x40 MLOAD SWAP1 DUP2 ADD PUSH1 0x40 MSTORE DUP1 SWAP3 SWAP2 SWAP1 DUP2 DUP2 MSTORE PUSH1 0x20 ADD DUP3 DUP1 SLOAD PUSH2 0x24E SWAP1 PUSH2 0x7B5 JUMP JUMPDEST DUP1 ISZERO PUSH2 0x29B JUMPI DUP1 PUSH1 0x1F LT PUSH2 0x270 JUMPI PUSH2 0x100 DUP1 DUP4 SLOAD DIV MUL DUP4 MSTORE SWAP2 PUSH1 0x20 ADD SWAP2 PUSH2 0x29B JUMP JUMPDEST DUP3 ADD SWAP2 SWAP1 PUSH1 0x0 MSTORE PUSH1 0x20 PUSH1 0x0 KECCAK256 SWAP1 JUMPDEST DUP2 SLOAD DUP2 MSTORE SWAP1 PUSH1 0x1 ADD SWAP1 PUSH1 0x20 ADD DUP1 DUP4 GT PUSH2 0x27E JUMPI DUP3 SWAP1 SUB PUSH1 0x1F AND DUP3 ADD SWAP2 JUMPDEST POP POP POP POP POP DUP2 MSTORE PUSH1 0x20 ADD PUSH1 0x1 DUP3 ADD DUP1 SLOAD PUSH2 0x2B4 SWAP1 PUSH2 0x7B5 JUMP JUMPDEST DUP1 PUSH1 0x1F ADD PUSH1 0x20 DUP1 SWAP2 DIV MUL PUSH1 0x20 ADD PUSH1 0x40 MLOAD SWAP1 DUP2 ADD PUSH1 0x40 MSTORE DUP1 SWAP3 SWAP2 SWAP1 DUP2 DUP2 MSTORE PUSH1 0x20 ADD DUP3 DUP1 SLOAD PUSH2 0x2E0 SWAP1 PUSH2 0x7B5 JUMP JUMPDEST DUP1 ISZERO PUSH2 0x32D JUMPI DUP1 PUSH1 0x1F LT PUSH2 0x302 JUMPI PUSH2 0x100 DUP1 DUP4 SLOAD DIV MUL DUP4 MSTORE SWAP2 PUSH1 0x20 ADD SWAP2 PUSH2 0x32D JUMP JUMPDEST DUP3 ADD SWAP2 SWAP1 PUSH1 0x0 MSTORE PUSH1 0x20 PUSH1 0x0 KECCAK256 SWAP1 JUMPDEST DUP2 SLOAD DUP2 MSTORE SWAP1 PUSH1 0x1 ADD SWAP1 PUSH1 0x20 ADD DUP1 DUP4 GT PUSH2 0x310 JUMPI DUP3 SWAP1 SUB PUSH1 0x1F AND DUP3 ADD SWAP2 JUMPDEST POP POP POP POP POP DUP2 MSTORE PUSH1 0x20 ADD PUSH1 0x2 DUP3 ADD SLOAD DUP2 MSTORE POP POP SWAP1 POP DUP1 PUSH1 0x0 ADD MLOAD DUP2 PUSH1 0x20 ADD MLOAD DUP3 PUSH1 0x40 ADD MLOAD SWAP5 POP SWAP5 POP SWAP5 POP POP POP SWAP3 POP SWAP3 POP SWAP3 JUMP JUMPDEST PUSH1 0x0 DUP1 PUSH2 0x36C DUP4 PUSH2 0x38C JUMP JUMPDEST SWAP1 POP PUSH1 0x0 DUP1 DUP3 DUP2 MSTORE PUSH1 0x20 ADD SWAP1 DUP2 MSTORE PUSH1 0x20 ADD PUSH1 0x0 KECCAK256 DUP1 SLOAD SWAP1 POP SWAP2 POP POP SWAP2 SWAP1 POP JUMP JUMPDEST PUSH1 0x0 DUP2 PUSH1 0x40 MLOAD PUSH1 0x20 ADD PUSH2 0x39F SWAP2 SWAP1 PUSH2 0xB3B JUMP JUMPDEST PUSH1 0x40 MLOAD PUSH1 0x20 DUP2 DUP4 SUB SUB DUP2 MSTORE SWAP1 PUSH1 0x40 MSTORE DUP1 MLOAD SWAP1 PUSH1 0x20 ADD KECCAK256 SWAP1 POP SWAP2 SWAP1 POP JUMP JUMPDEST PUSH1 0x0 PUSH1 0x40 MLOAD SWAP1 POP SWAP1 JUMP JUMPDEST PUSH1 0x0 DUP1 REVERT JUMPDEST PUSH1 0x0 DUP1 REVERT JUMPDEST PUSH1 0x0 DUP1 REVERT JUMPDEST PUSH1 0x0 DUP1 REVERT JUMPDEST PUSH1 0x0 PUSH1 0x1F NOT PUSH1 0x1F DUP4 ADD AND SWAP1 POP SWAP2 SWAP1 POP JUMP JUMPDEST PUSH32 0x4E487B7100000000000000000000000000000000000000000000000000000000 PUSH1 0x0 MSTORE PUSH1 0x41 PUSH1 0x4 MSTORE PUSH1 0x24 PUSH1 0x0 REVERT JUMPDEST PUSH2 0x423 DUP3 PUSH2 0x3DA JUMP JUMPDEST DUP2 ADD DUP2 DUP2 LT PUSH8 0xFFFFFFFFFFFFFFFF DUP3 GT OR ISZERO PUSH2 0x442 JUMPI PUSH2 0x441 PUSH2 0x3EB JUMP JUMPDEST JUMPDEST DUP1 PUSH1 0x40 MSTORE POP POP POP JUMP JUMPDEST PUSH1 0x0 PUSH2 0x455 PUSH2 0x3BC JUMP JUMPDEST SWAP1 POP PUSH2 0x461 DUP3 DUP3 PUSH2 0x41A JUMP JUMPDEST SWAP2 SWAP1 POP JUMP JUMPDEST PUSH1 0x0 PUSH8 0xFFFFFFFFFFFFFFFF DUP3 GT ISZERO PUSH2 0x481 JUMPI PUSH2 0x480 PUSH2 0x3EB JUMP JUMPDEST JUMPDEST PUSH2 0x48A DUP3 PUSH2 0x3DA JUMP JUMPDEST SWAP1 POP PUSH1 0x20 DUP2 ADD SWAP1 POP SWAP2 SWAP1 POP JUMP JUMPDEST DUP3 DUP2 DUP4 CALLDATACOPY PUSH1 0x0 DUP4 DUP4 ADD MSTORE POP POP POP JUMP JUMPDEST PUSH1 0x0 PUSH2 0x4B9 PUSH2 0x4B4 DUP5 PUSH2 0x466 JUMP JUMPDEST PUSH2 0x44B JUMP JUMPDEST SWAP1 POP DUP3 DUP2 MSTORE PUSH1 0x20 DUP2 ADD DUP5 DUP5 DUP5 ADD GT ISZERO PUSH2 0x4D5 JUMPI PUSH2 0x4D4 PUSH2 0x3D5 JUMP JUMPDEST JUMPDEST PUSH2 0x4E0 DUP5 DUP3 DUP6 PUSH2 0x497 JUMP JUMPDEST POP SWAP4 SWAP3 POP POP POP JUMP JUMPDEST PUSH1 0x0 DUP3 PUSH1 0x1F DUP4 ADD SLT PUSH2 0x4FD JUMPI PUSH2 0x4FC PUSH2 0x3D0 JUMP JUMPDEST JUMPDEST DUP2 CALLDATALOAD PUSH2 0x50D DUP5 DUP3 PUSH1 0x20 DUP7 ADD PUSH2 0x4A6 JUMP JUMPDEST SWAP2 POP POP SWAP3 SWAP2 POP POP JUMP JUMPDEST PUSH1 0x0 DUP1 PUSH1 0x0 PUSH1 0x60 DUP5 DUP7 SUB SLT ISZERO PUSH2 0x52F JUMPI PUSH2 0x52E PUSH2 0x3C6 JUMP JUMPDEST JUMPDEST PUSH1 0x0 DUP5 ADD CALLDATALOAD PUSH8 0xFFFFFFFFFFFFFFFF DUP2 GT ISZERO PUSH2 0x54D JUMPI PUSH2 0x54C PUSH2 0x3CB JUMP JUMPDEST JUMPDEST PUSH2 0x559 DUP7 DUP3 DUP8 ADD PUSH2 0x4E8 JUMP JUMPDEST SWAP4 POP POP PUSH1 0x20 DUP5 ADD CALLDATALOAD PUSH8 0xFFFFFFFFFFFFFFFF DUP2 GT ISZERO PUSH2 0x57A JUMPI PUSH2 0x579 PUSH2 0x3CB JUMP JUMPDEST JUMPDEST PUSH2 0x586 DUP7 DUP3 DUP8 ADD PUSH2 0x4E8 JUMP JUMPDEST SWAP3 POP POP PUSH1 0x40 DUP5 ADD CALLDATALOAD PUSH8 0xFFFFFFFFFFFFFFFF DUP2 GT ISZERO PUSH2 0x5A7 JUMPI PUSH2 0x5A6 PUSH2 0x3CB JUMP JUMPDEST JUMPDEST PUSH2 0x5B3 DUP7 DUP3 DUP8 ADD PUSH2 0x4E8 JUMP JUMPDEST SWAP2 POP POP SWAP3 POP SWAP3 POP SWAP3 JUMP JUMPDEST PUSH1 0x0 DUP2 SWAP1 POP SWAP2 SWAP1 POP JUMP JUMPDEST PUSH2 0x5D0 DUP2 PUSH2 0x5BD JUMP JUMPDEST DUP2 EQ PUSH2 0x5DB JUMPI PUSH1 0x0 DUP1 REVERT JUMPDEST POP JUMP JUMPDEST PUSH1 0x0 DUP2 CALLDATALOAD SWAP1 POP PUSH2 0x5ED DUP2 PUSH2 0x5C7 JUMP JUMPDEST SWAP3 SWAP2 POP POP JUMP JUMPDEST PUSH1 0x0 DUP1 PUSH1 0x40 DUP4 DUP6 SUB SLT ISZERO PUSH2 0x60A JUMPI PUSH2 0x609 PUSH2 0x3C6 JUMP JUMPDEST JUMPDEST PUSH1 0x0 DUP4 ADD CALLDATALOAD PUSH8 0xFFFFFFFFFFFFFFFF DUP2 GT ISZERO PUSH2 0x628 JUMPI PUSH2 0x627 PUSH2 0x3CB JUMP JUMPDEST JUMPDEST PUSH2 0x634 DUP6 DUP3 DUP7 ADD PUSH2 0x4E8 JUMP JUMPDEST SWAP3 POP POP PUSH1 0x20 PUSH2 0x645 DUP6 DUP3 DUP7 ADD PUSH2 0x5DE JUMP JUMPDEST SWAP2 POP POP SWAP3 POP SWAP3 SWAP1 POP JUMP JUMPDEST PUSH1 0x0 DUP2 MLOAD SWAP1 POP SWAP2 SWAP1 POP JUMP JUMPDEST PUSH1 0x0 DUP3 DUP3 MSTORE PUSH1 0x20 DUP3 ADD SWAP1 POP SWAP3 SWAP2 POP POP JUMP JUMPDEST PUSH1 0x0 JUMPDEST DUP4 DUP2 LT ISZERO PUSH2 0x689 JUMPI DUP1 DUP3 ADD MLOAD DUP2 DUP5 ADD MSTORE PUSH1 0x20 DUP2 ADD SWAP1 POP PUSH2 0x66E JUMP JUMPDEST PUSH1 0x0 DUP5 DUP5 ADD MSTORE POP POP POP POP JUMP JUMPDEST PUSH1 0x0 PUSH2 0x6A0 DUP3 PUSH2 0x64F JUMP JUMPDEST PUSH2 0x6AA DUP2 DUP6 PUSH2 0x65A JUMP JUMPDEST SWAP4 POP PUSH2 0x6BA DUP2 DUP6 PUSH1 0x20 DUP7 ADD PUSH2 0x66B JUMP JUMPDEST PUSH2 0x6C3 DUP2 PUSH2 0x3DA JUMP JUMPDEST DUP5 ADD SWAP2 POP POP SWAP3 SWAP2 POP POP JUMP JUMPDEST PUSH2 0x6D7 DUP2 PUSH2 0x5BD JUMP JUMPDEST DUP3 MSTORE POP POP JUMP JUMPDEST PUSH1 0x0 PUSH1 0x60 DUP3 ADD SWAP1 POP DUP2 DUP2 SUB PUSH1 0x0 DUP4 ADD MSTORE PUSH2 0x6F7 DUP2 DUP7 PUSH2 0x695 JUMP JUMPDEST SWAP1 POP DUP2 DUP2 SUB PUSH1 0x20 DUP4 ADD MSTORE PUSH2 0x70B DUP2 DUP6 PUSH2 0x695 JUMP JUMPDEST SWAP1 POP PUSH2 0x71A PUSH1 0x40 DUP4 ADD DUP5 PUSH2 0x6CE JUMP JUMPDEST SWAP5 SWAP4 POP POP POP POP JUMP JUMPDEST PUSH1 0x0 PUSH1 0x20 DUP3 DUP5 SUB SLT ISZERO PUSH2 0x738 JUMPI PUSH2 0x737 PUSH2 0x3C6 JUMP JUMPDEST JUMPDEST PUSH1 0x0 DUP3 ADD CALLDATALOAD PUSH8 0xFFFFFFFFFFFFFFFF DUP2 GT ISZERO PUSH2 0x756 JUMPI PUSH2 0x755 PUSH2 0x3CB JUMP JUMPDEST JUMPDEST PUSH2 0x762 DUP5 DUP3 DUP6 ADD PUSH2 0x4E8 JUMP JUMPDEST SWAP2 POP POP SWAP3 SWAP2 POP POP JUMP JUMPDEST PUSH1 0x0 PUSH1 0x20 DUP3 ADD SWAP1 POP PUSH2 0x780 PUSH1 0x0 DUP4 ADD DUP5 PUSH2 0x6CE JUMP JUMPDEST SWAP3 SWAP2 POP POP JUMP JUMPDEST PUSH32 0x4E487B7100000000000000000000000000000000000000000000000000000000 PUSH1 0x0 MSTORE PUSH1 0x22 PUSH1 0x4 MSTORE PUSH1 0x24 PUSH1 0x0 REVERT JUMPDEST PUSH1 0x0 PUSH1 0x2 DUP3 DIV SWAP1 POP PUSH1 0x1 DUP3 AND DUP1 PUSH2 0x7CD JUMPI PUSH1 0x7F DUP3 AND SWAP2 POP JUMPDEST PUSH1 0x20 DUP3 LT DUP2 SUB PUSH2 0x7E0 JUMPI PUSH2 0x7DF PUSH2 0x786 JUMP JUMPDEST JUMPDEST POP SWAP2 SWAP1 POP JUMP JUMPDEST PUSH1 0x0 DUP2 SWAP1 POP DUP2 PUSH1 0x0 MSTORE PUSH1 0x20 PUSH1 0x0 KECCAK256 SWAP1 POP SWAP2 SWAP1 POP JUMP JUMPDEST PUSH1 0x0 PUSH1 0x20 PUSH1 0x1F DUP4 ADD DIV SWAP1 POP SWAP2 SWAP1 POP JUMP JUMPDEST PUSH1 0x0 DUP3 DUP3 SHL SWAP1 POP SWAP3 SWAP2 POP POP JUMP JUMPDEST PUSH1 0x0 PUSH1 0x8 DUP4 MUL PUSH2 0x848 PUSH32 0xFFFFFFFFFFFFFFFFFFFFFFFFFFFFFFFFFFFFFFFFFFFFFFFFFFFFFFFFFFFFFFFF DUP3 PUSH2 0x80B JUMP JUMPDEST PUSH2 0x852 DUP7 DUP4 PUSH2 0x80B JUMP JUMPDEST SWAP6 POP DUP1 NOT DUP5 AND SWAP4 POP DUP1 DUP7 AND DUP5 OR SWAP3 POP POP POP SWAP4 SWAP3 POP POP POP JUMP JUMPDEST PUSH1 0x0 DUP2 SWAP1 POP SWAP2 SWAP1 POP JUMP JUMPDEST PUSH1 0x0 PUSH2 0x88F PUSH2 0x88A PUSH2 0x885 DUP5 PUSH2 0x5BD JUMP JUMPDEST PUSH2 0x86A JUMP JUMPDEST PUSH2 0x5BD JUMP JUMPDEST SWAP1 POP SWAP2 SWAP1 POP JUMP JUMPDEST PUSH1 0x0 DUP2 SWAP1 POP SWAP2 SWAP1 POP JUMP JUMPDEST PUSH2 0x8A9 DUP4 PUSH2 0x874 JUMP JUMPDEST PUSH2 0x8BD PUSH2 0x8B5 DUP3 PUSH2 0x896 JUMP JUMPDEST DUP5 DUP5 SLOAD PUSH2 0x818 JUMP JUMPDEST DUP3 SSTORE POP POP POP POP JUMP JUMPDEST PUSH1 0x0 SWAP1 JUMP JUMPDEST PUSH2 0x8D2 PUSH2 0x8C5 JUMP JUMPDEST PUSH2 0x8DD DUP2 DUP5 DUP5 PUSH2 0x8A0 JUMP JUMPDEST POP POP POP JUMP JUMPDEST JUMPDEST DUP2 DUP2 LT ISZERO PUSH2 0x901 JUMPI PUSH2 0x8F6 PUSH1 0x0 DUP3 PUSH2 0x8CA JUMP JUMPDEST PUSH1 0x1 DUP2 ADD SWAP1 POP PUSH2 0x8E3 JUMP JUMPDEST POP POP JUMP JUMPDEST PUSH1 0x1F DUP3 GT ISZERO PUSH2 0x946 JUMPI PUSH2 0x917 DUP2 PUSH2 0x7E6 JUMP JUMPDEST PUSH2 0x920 DUP5 PUSH2 0x7FB JUMP JUMPDEST DUP2 ADD PUSH1 0x20 DUP6 LT ISZERO PUSH2 0x92F JUMPI DUP2 SWAP1 POP JUMPDEST PUSH2 0x943 PUSH2 0x93B DUP6 PUSH2 0x7FB JUMP JUMPDEST DUP4 ADD DUP3 PUSH2 0x8E2 JUMP JUMPDEST POP POP JUMPDEST POP POP POP JUMP JUMPDEST PUSH1 0x0 DUP3 DUP3 SHR SWAP1 POP SWAP3 SWAP2 POP POP JUMP JUMPDEST PUSH1 0x0 PUSH2 0x969 PUSH1 0x0 NOT DUP5 PUSH1 0x8 MUL PUSH2 0x94B JUMP JUMPDEST NOT DUP1 DUP4 AND SWAP2 POP POP SWAP3 SWAP2 POP POP JUMP JUMPDEST PUSH1 0x0 PUSH2 0x982 DUP4 DUP4 PUSH2 0x958 JUMP JUMPDEST SWAP2 POP DUP3 PUSH1 0x2 MUL DUP3 OR SWAP1 POP SWAP3 SWAP2 POP POP JUMP JUMPDEST PUSH2 0x99B DUP3 PUSH2 0x64F JUMP JUMPDEST PUSH8 0xFFFFFFFFFFFFFFFF DUP2 GT ISZERO PUSH2 0x9B4 JUMPI PUSH2 0x9B3 PUSH2 0x3EB JUMP JUMPDEST JUMPDEST PUSH2 0x9BE DUP3 SLOAD PUSH2 0x7B5 JUMP JUMPDEST PUSH2 0x9C9 DUP3 DUP3 DUP6 PUSH2 0x905 JUMP JUMPDEST PUSH1 0x0 PUSH1 0x20 SWAP1 POP PUSH1 0x1F DUP4 GT PUSH1 0x1 DUP2 EQ PUSH2 0x9FC JUMPI PUSH1 0x0 DUP5 ISZERO PUSH2 0x9EA JUMPI DUP3 DUP8 ADD MLOAD SWAP1 POP JUMPDEST PUSH2 0x9F4 DUP6 DUP3 PUSH2 0x976 JUMP JUMPDEST DUP7 SSTORE POP PUSH2 0xA5C JUMP JUMPDEST PUSH1 0x1F NOT DUP5 AND PUSH2 0xA0A DUP7 PUSH2 0x7E6 JUMP JUMPDEST PUSH1 0x0 JUMPDEST DUP3 DUP2 LT ISZERO PUSH2 0xA32 JUMPI DUP5 DUP10 ADD MLOAD DUP3 SSTORE PUSH1 0x1 DUP3 ADD SWAP2 POP PUSH1 0x20 DUP6 ADD SWAP5 POP PUSH1 0x20 DUP2 ADD SWAP1 POP PUSH2 0xA0D JUMP JUMPDEST DUP7 DUP4 LT ISZERO PUSH2 0xA4F JUMPI DUP5 DUP10 ADD MLOAD PUSH2 0xA4B PUSH1 0x1F DUP10 AND DUP3 PUSH2 0x958 JUMP JUMPDEST DUP4 SSTORE POP JUMPDEST PUSH1 0x1 PUSH1 0x2 DUP9 MUL ADD DUP9 SSTORE POP POP POP JUMPDEST POP POP POP POP POP POP JUMP JUMPDEST PUSH32 0x496E646578206F7574206F6620626F756E647300000000000000000000000000 PUSH1 0x0 DUP3 ADD MSTORE POP JUMP JUMPDEST PUSH1 0x0 PUSH2 0xA9A PUSH1 0x13 DUP4 PUSH2 0x65A JUMP JUMPDEST SWAP2 POP PUSH2 0xAA5 DUP3 PUSH2 0xA64 JUMP JUMPDEST PUSH1 0x20 DUP3 ADD SWAP1 POP SWAP2 SWAP1 POP JUMP JUMPDEST PUSH1 0x0 PUSH1 0x20 DUP3 ADD SWAP1 POP DUP2 DUP2 SUB PUSH1 0x0 DUP4 ADD MSTORE PUSH2 0xAC9 DUP2 PUSH2 0xA8D JUMP JUMPDEST SWAP1 POP SWAP2 SWAP1 POP JUMP JUMPDEST PUSH32 0x4E487B7100000000000000000000000000000000000000000000000000000000 PUSH1 0x0 MSTORE PUSH1 0x32 PUSH1 0x4 MSTORE PUSH1 0x24 PUSH1 0x0 REVERT JUMPDEST PUSH1 0x0 DUP2 SWAP1 POP SWAP3 SWAP2 POP POP JUMP JUMPDEST PUSH1 0x0 PUSH2 0xB15 DUP3 PUSH2 0x64F JUMP JUMPDEST PUSH2 0xB1F DUP2 DUP6 PUSH2 0xAFF JUMP JUMPDEST SWAP4 POP PUSH2 0xB2F DUP2 DUP6 PUSH1 0x20 DUP7 ADD PUSH2 0x66B JUMP JUMPDEST DUP1 DUP5 ADD SWAP2 POP POP SWAP3 SWAP2 POP POP JUMP JUMPDEST PUSH1 0x0 PUSH2 0xB47 DUP3 DUP5 PUSH2 0xB0A JUMP JUMPDEST SWAP2 POP DUP2 SWAP1 POP SWAP3 SWAP2 POP POP JUMP INVALID LOG2 PUSH5 0x6970667358 0x22 SLT KECCAK256 0xCE SWAP7 MSIZE 0xC7 PUSH1 0x1E 0xC2 PUSH14 0xABDBC44C4077E2A61E7598C80F20 0x24 CREATE2 0xB9 SELFDESTRUCT SWAP2 0xE0 POP 0x24 PUSH4 0xEF64736F PUSH13 0x634300081C0033000000000000 "},"methodIdentifiers":{"addRecord(string,string,string)":"3f723c62","getRecordByIndex(string,uint256)":"6319d03e","getRecordCount(string)":"c3cef20a"}}}}}